:020000040800F2
:10900000A02F0020F1910008D7C0000815BE00086D
:10901000ADC00008F3970008D1E40008000000008C
:10902000000000000000000000000000BDCB0008B0
:10903000659A0008000000008DC30008BFCB00083F
:109040000B9200080B9200080B9200080B9200088C
:109050000B9200080B9200080B9200080B9200087C
:109060000B9200080B9200080B9200080B9200086C
:109070000B9200080B9200080B9200080B9200085C
:109080000B9200080B9200080B9200080B9200084C
:1090900009E400080B9200080B9200080B920008EC
:1090A0000B9200080B9200080B9200080B9200082C
:1090B0000B9200080B9200080B9200080B9200081C
:1090C0000B9200080B9200080B9200080B9200080C
:1090D0000B9200080B9200080B9200080B920008FC
:1090E0000B9200080B9200080B9200080B920008EC
:1090F0000B9200080B9200080B9200080B920008DC
:109100000B9200080B9200080B9200080B920008CB
:109110000B9200080B9200080B9200080B920008BB
:109120000B9200080B9200080B9200080B920008AB
:109130000B9200080B9200080B9200080B9200089B
:109140000B9200080B9200080B9200080000000030
:10915000000000000000000000000000000000000F
:109160000000000000000000000000000B9200085A
:109170000B9200080B9200080B9200080B9200085B
:109180000B9200080B9200080B9200080B9200084B
:109190000B920008000000001D9B00080B920008C5
:1091A000299B00080B9200080B9200080B92000804
:1091B0000B9200080B9200080B9200080B9200081B
:1091C0000B9200080B9200080B9200080B9200080B
:1091D0000B9200080B920008DFF810D000F03EFA66
:1091E00000480047C1F10008AFF30080A02F002025
:1091F0000648804706480047FEE7FEE7FEE7FEE731
:10920000FEE7FEE7FEE7FEE7FEE7FEE775CC0008B7
:10921000D991000840EA01039B0703D009E008C97F
:10922000121F08C0042AFAD203E011F8013B00F82B
:10923000013B521EF9D27047D2B201E000F8012B77
:10924000491EFBD270470022F6E710B513460A46C6
:1092500004461946FFF7F0FF204610BD30B50B4617
:10926000014600202022012409E021FA02F59D4256
:1092700005D303FA02F5491B04FA02F52844151E2A
:10928000A2F10102F1DC30BD2DE9F05F05460020BE
:1092900092469B4688460646814640241BE0284667
:1092A00041464746224600F0FAF953465A46C01A4C
:1092B000914110D311461846224600F0E1F92D1ACB
:1092C00067EB01084F4622460120002100F0D8F943
:1092D00017EB00094E41201EA4F10104DFDC4846D3
:1092E00031462A464346BDE8F09F2DE9FE4F8046B1
:1092F00081EA0300C00F0C46009021F0004123F0EA
:109300000045B8EB0200A94105D2404621469046EF
:109310001C460B46024623F00040104347D0270D61
:10932000C7F30A00C3F30A510290401A0190402883
:109330006BDAC3F3130040F4801B0098924620B10F
:109340000023D2EB030A63EB0B0B01985946C0F1E3
:109350004002504600F094F906460D4650465946E4
:10936000019A00F0ACF910EB08006141002487EA93
:10937000115284EAE7731A4340D0009A62B3019A0B
:10938000012A4FEA075215DC001B61EB02014FF086
:10939000004202EA0752CDE90042001C41F580116B
:1093A00032462B4600F0ACF903B0BDE8F08F4046E2
:1093B0002146F9E7001B61EB0201001C41F5801317
:1093C00000185B412018A2F5001747EB030140EAA3
:1093D000D570B6196D4111E06D084FEA360645EAC1
:1093E000C0754FEA0752001B61EB0201001C41F5FA
:1093F000801149084FEA30000019514132462B468E
:1094000003B0BDE8F04F00F06CB9009801224000B5
:109410000023D0EB020263EBE073009821464FEA91
:10942000E074B8EB000061EB0401E9E783F000436E
:109430005BE781F0004158E72DE9FE4F81EA030424
:1094400004F0004421F0004100944FF0000B23F0A1
:10945000004350EA01045ED052EA03045BD0C3F338
:109460000A54C1F30A552C44A4F2F3340194A0FB2E
:109470000254C1F3130141F48011C3F3130343F405
:10948000801301FB024400FB034E840A970A44EA5E
:10949000815447EA8357A4FB076802958D0A05FBB0
:1094A00007854FEA932C04FB0C542705029D4FEAD5
:1094B000065847EA1637B5EB08056EEB070C870E22
:1094C000920E47EA811742EA8312A7FB0201B6EB2C
:1094D0000B0164EB00042B0D43EA0C335E1844EBE4
:1094E0001C50DA465146E7FB0201C5F313044FEA6C
:1094F0000B3343EA14534FEA0432019C43EA060358
:10950000A4F10C040294009CCDE900B400F0F8F83A
:1095100003B0BDE8F08F00200146F9E72DE9F04DDA
:1095200081EA030404F0004B21F0004514464FF09B
:10953000000A23F0004150EA050220D054EA01025B
:109540001DD0C5F30A570246C5F31303C1F3130038
:10955000C1F30A5640F4801543F48013A7EB0608C4
:10956000101BD64608F2FD3873EB050002D308F154
:10957000010801E092185B41B8F1000F03DA002006
:109580000146BDE8F08D00204FF480110646844668
:109590000EE0171B73EB050705D3121B63EB0503E6
:1095A00006434CEA010C49084FEA300092185B412F
:1095B00050EA0107EDD152EA030012D082EA04001A
:1095C00083EA0501084305D0101BAB4106D20122F6
:1095D000002306E000224FF0004302E06FF001029A
:1095E00053101AEB06004CEB085110EB0A0041EB4C
:1095F0000B01BDE8F04D00F074B8C1F30A52C1F39D
:10960000130140F2FF3341F480119A4202DA002044
:109610000146704740F233439A42A2F2334202DCE1
:10962000524200F03CB800F02BB8000030B5041EE8
:1096300071F1000404DB4FF00044404264EB01018F
:10964000141E73F1000405DB1C464FF00043524228
:1096500063EB0403994208BF904230BD064C074DAE
:1096600006E0E06840F0010394E8070098471034F2
:10967000AC42F6D3FFF7B4FD2CF200084CF2000820
:10968000202A04DB203A00FA02F1002070479140C2
:10969000C2F1200320FA03F3194390407047202AB7
:1096A00004DB203A21FA02F00021704721FA02F38C
:1096B000D040C2F120029140084319467047202A49
:1096C00006DBCB17203A41FA02F043EAE07306E0EA
:1096D00041FA02F3D040C2F12002914008431946FA
:1096E000704710B5141E73F1000408DA401C41F1F4
:1096F000000192185B411A4301D120F0010010BD16
:109700002DE9F04D92469B4611B1B1FA81F202E08B
:10971000B0FA80F220329046FFF7B2FF04460F46BF
:1097200040EA0A0041EA0B0153465A46084313D067
:10973000114653EA010019D0C8F140025046FFF724
:10974000AEFF05460E46504659464246FFF798FF83
:10975000084305D0012004E020463946BDE8F08DDD
:109760000020054346EAE0762C4337430A98630518
:10977000E40AA0EB08000022FD0A44EA47540A303C
:1097800002D500200146E9E7010510196941DDE92C
:10979000084500196941BDE8F04DA2E770B58C1885
:1097A00010F8015B15F0070301D110F8013B2A11F5
:1097B00006D110F8012B03E010F8016B01F8016BE2
:1097C0005B1EF9D12B0705D40023521E0DD401F8DE
:1097D000013BFAE710F8013BCB1A921C03E013F8A7
:1097E000015B01F8015B521EF9D5A142D8D30020DC
:1097F00070BDFEE70FB470B500250024304E012087
:1098000030700498000E70700498000CB0700498CA
:10981000000AF0700498307105A92AA00EC902F060
:1098200046FC08A930A00EC902F041FC07980104CB
:10983000090C29D10014102826D2DFE800F02508F1
:109840000A0C0E10121416181A1C1E2022240124B1
:109850001AE0022418E0032416E0042414E005248E
:1098600012E0062410E007240EE008240CE00C248B
:109870000AE0102408E0142406E0182404E0202460
:1098800002E0302400E04024002C15D00622747140
:109890000B48403806E01146435D521C92B27354A7
:1098A0006D1CEDB2A542F6D370BC054940F601002F
:1098B0005DF814EB04F042BE70BC5DF814FB0000D0
:1098C0009C1C002069547970653A253038582C5218
:1098D00046547970653A253038582C6C656E3A25B7
:1098E0003032580A000000002D65737461746549B8
:1098F0003A253038582C6252617465533A25303815
:10990000582C66466F726D61743A253038580A00DB
:109910000FB4F0B4002100202A4B01221A70049ADF
:10992000120E5A70049A120C9A70049A120ADA7083
:10993000049A1A71079A1404240C29D11214102ABB
:1099400026D2DFE802F025080A0C0E1012141618B1
:109950001A1C1E20222401201AE0022018E00320F5
:1099600016E0042014E0052012E0062010E0072095
:109970000EE008200CE00C200AE0102008E0142083
:1099800006E0182004E0202002E0302000E0402023
:10999000002814D0062258710A4D403D06E01446B6
:1099A0006E5C521C92B21E55491CC9B28142F6D35C
:1099B000F0BC044940F6020004B004F0BFBDF0BCA6
:1099C00004B070479C1C002004284FF00000704732
:1099D0000020704710B500220449054803F0AEFA94
:1099E0000449034803F0A4FA002010BD0417002026
:1099F000C40900201C13002010B50146034803F0E1
:109A000097FA024803F068FA002010BDC40900204C
:109A100010B50A460849D1F8B812D1F81412002935
:109A200001D0012010BD0146034803F087FABDE8CC
:109A30001040014803F0FCBAC409002070B5044688
:109A40000D46002601F0C8F82268904201D3801A22
:109A500001E0D1430844A84202D3012650192060F6
:109A6000304670BD7047000070B52748002404617F
:109A700044618461C461046044608460C4601821EE
:109A8000E830FFF7E0FB24212048FFF7DCFB1F480C
:109A900024212430FFF7D7FB1C4828214830FFF74A
:109AA000D2FB194864212030FFF7CDFB1748642111
:109AB0007C38FFF7C8FB164D00228021284601F0B4
:109AC00085F800224FF40071284601F07FF80F4816
:109AD00040F222310160446084606902C160046127
:109AE00044618461C4610462243040F22332026024
:109AF00044608460C160046144618461C461046243
:109B000004495820487070BDEC1A0020EC1B00205E
:109B1000000400486C00002070470000014800F07D
:109B20003ABB00000C1B0020014800F034BB0000D1
:109B3000701B002010B51849184B02689A4200D1DA
:109B40001749184B9A4201D101F5D461016452F8CA
:109B5000803F848E23F4F81343EA0443136001F139
:109B600070024264026852F8803F90F8384023F057
:109B7000706343EA0463136001F1B0028264D83277
:109B8000C264D8320265183242650020D83200E043
:109B900001C19142FCD310BD00A400400068004008
:109BA00050A70040006C0040F0B5D1E901650C6998
:109BB0002C430D68002E18D045F080452C43D1E988
:109BC0000665354391F820704E6946EA07663543CD
:109BD000CE683543406D03EBC30300EBC3031C6049
:109BE0005D60083300200C4E0FE044EA8544E6E750
:109BF0001418155CE77845EA0765A77864783F0490
:109C000047EA0424254320C3001DCC6806EB144416
:109C100024788442ECD8F0BD04F20008124A107F88
:109C20001249012801D003280BD10B6843F40063CB
:109C30000B600B6823F400630B600B6843F4007344
:109C40000B60022801D003280BD1086840F4805033
:109C50000860086820F480500860086840F480605C
:109C60000860002010777047C000002000200240EC
:109C70000D490A6A52020CD5C20703D04A6942F064
:109C800004024A61800709D5486940F400404861F0
:109C900004E0486948F2040210434861486940F40E
:109CA000803048617047000000200240114A136A6A
:109CB0005B0204D4516921F4006151610AE0C907D3
:109CC00004D0516921F40061516103E0516941F40C
:109CD000006151615169C0B221F47E7141EAC00056
:109CE0005061506940F002005061506940F480308A
:109CF000506170470020024010B505494C6944F09E
:109D000001044C610260BFF36F8F436010BD00001F
:109D10000020024010B54022084B5C6944F48024C6
:109D20005C61EFF3108372B610C910C0521ED2B23C
:109D3000002AF9D183F3108810BD000000200240F2
:109D400070B5054600F048FF0646154C06E000F0E9
:109D500043FF801BA84201D9032070BD2069C003C6
:109D6000F5D420694CF2FA31084088B10D494A68AF
:109D700002434A60010F04D0A16900F07042114310
:109D8000A161010102D020F070402061012070BD6E
:109D90002069C00701D001202061002070BD0000B3
:109DA00000200240C000002070B50C4909680C4C2E
:109DB000CB054FF6FF7621884FF400224FF0006567
:109DC000B14202D0218809048A0905EB520181427F
:109DD00001D9012070BD022070BD000000000140CB
:109DE000E075FF1F10B50A4C4FF6FF734FF40021CA
:109DF00022889A4202D02188090489094FF0006420
:109E000004EB5104A0F10061C90A084610BD00002E
:109E1000E075FF1F10B5044600F0DEFE206010BDA7
:109E200010B50B480168001D0468001D0068084457
:109E300000280BD00822074901F0FEFF0549204603
:109E40000422BDE81040103101F0F6BF10BD000043
:109E50009075FF1F3E00002070B5044600F0BCFE68
:109E60000546601C02D004484068044400F0B4FE7B
:109E7000401BA042FAD370BDB400002030B590F86A
:109E80005C30012B07D0022B05D0016E41F002019E
:109E90000166012030BD0468A36D4D0701D0DD07C8
:109EA0001DD011F0380F01D09D0718D511F4E07FB7
:109EB00001D05D0713D511F4F05F01D01D070ED559
:109EC00011F4604F01D0DD0609D511F4403F01D0F7
:109ED0009D0604D511F47C0F05D05D0603D4E56D15
:109EE00045F00105E5654C0701D0DC071DD111F0F7
:109EF000380F01D09C0718D411F4E07F01D05C0723
:109F000013D411F4F05F01D01C070ED411F4604F8C
:109F100001D0DC0609D411F4403F01D09C0604D4E2
:109F200011F47C0F06D05B0604D50368DC6D44F0A9
:109F30000204DC650B0604D5036853F8DC4F1443B8
:109F40001C60CB0504D5036853F8E04F14431C6034
:109F50000068426D0A434265002030BD70B504467A
:109F600094F85C00022805D0206E40F008002066BE
:109F7000012070BD2068D0F8C4309B0205D5206E4A
:109F800040F400702066012070BDD0F8C400C0F31A
:109F900001452B462046FFF707FE21680120A84017
:109FA000C1F8CC00A065002070BD10B590F85C2011
:109FB000012A07D0022A05D0016E41F00201016694
:109FC000012010BD0A687AB10B7B0A6942EA43722C
:109FD0000C7A4B6943EA8473406C496800EBC1001A
:109FE00002604360002010BD0B7A4A690C8A42EA85
:109FF00083720B7BDB0643EA04431A43006C496817
:10A0000000EB81000260EDE730B5039C90F85C50F6
:10A01000012D05D0016E41F004010166012030BD23
:10A020000901006841EA820141EA430150F8802FAA
:10A03000214322F03F0211430160002030BD10B5E2
:10A040000446002C0FD0204600F035FB2068C16D7F
:10A0500021F00301C165204600F040FA002020668F
:10A0600084F85C0010BD012010BD90F85C1001293F
:10A0700005D0016E41F004010166012070470068BF
:10A08000C16841F40001C16000207047704770470B
:10A09000F0B590F85C40022C05D0016E41F008014B
:10A0A00001660120F0BD402938D00468D4F89850EA
:10A0B0002D0749D0D4F89840C4F30126C46C06EBB0
:10A0C000C60504EBC5052C6804F080445460A4B3B5
:10A0D0002C6824F0604414602C6804F000549460F0
:10A0E0002C6804F000441461AC88A4B2D4616C689C
:10A0F00004F47024D4606C6804F4801454616C68B7
:10A1000004F4001494616C68C4F3066414626C680F
:10A110000835E40F546200241D4F25E00468D4F88C
:10A1200090502D070AD0D4F89040C4F30126846CD7
:10A1300006EBC60504EBC505C5E70BE0016E41F46F
:10A14000807101660120F0BD016E41F480710166ED
:10A150000120F0BD2C68C4F38A441460BCE715F8F4
:10A1600004C003F804C0641CD2F80CC007EB1C4CFC
:10A170009CF800C0A445F2D8402904D00068C0F87B
:10A180009C600020F0BD0068C0F89460F9E7000012
:10A1900004F2000870472DE9F04704462068016D7D
:10A1A00001F4E051476D0F40016D01F00701D0F857
:10A1B000548008EA0108016D01F03801D0F854908C
:10A1C00009EA0109016D01F47101456D0D40016D50
:10A1D00001F46021466D0E40016D490607D5416DC1
:10A1E000490604D5402101652046FFF7D3FF2068CA
:10A1F000016DC9050DD5416DC9050AD5D0F8D82026
:10A20000D0F8E01011404FF480720265204600F053
:10A2100096FA2FB1206807653946204600F091FA7A
:10A22000B8F1000F06D02068C0F8508041462046A3
:10A2300000F0F8F9B9F1000F06D02068C0F850908E
:10A240004946204600F020FA2068016D890508D5AE
:10A25000416D890505D54FF400710165204600F078
:10A2600071FA2068016D09060CD5416D090609D502
:10A27000D0F8D420D0F8DC101140802202652046AE
:10A2800000F05EFA2068016D890408D5416D8904EB
:10A2900005D54FF400510165204600F04FFA2068C3
:10A2A000016D090408D5416D090405D54FF400413D
:10A2B0000165204600F041FA2068016D490409D586
:10A2C000416D490406D54FF480410165206E40F090
:10A2D000800020662EB12068066531462046FFF7D3
:10A2E000D6FE25B120680565206E28432066206EC5
:10A2F000002802D02046FFF7C9FEBDE8F087000025
:10A300002DE9F0470446002C07D0724F4FF44079F6
:10A3100094F85C00002618B107E00120BDE8F08742
:10A3200084F85D60204600F00DF92068816921F015
:10A330001001816100F050FC05464FF003080CE06D
:10A3400000F04AFC401B0A2807D9206E40F00100AB
:10A35000206684F85C800120E0E7206880690007BF
:10A36000EED42068816941F00101816100F034FC84
:10A3700005460CE000F030FC401B0A2807D9206E8F
:10A3800040F00100206684F85C800120C6E7206868
:10A390008069C007EED02068816941F002018161C7
:10A3A0002068B84202D14C4960680860207C0128CE
:10A3B00039D02068816941F040018161607C0128C9
:10A3C00037D02068816921F480418161A07C012817
:10A3D00035D02068816941F48051816120688169AC
:10A3E000A26821F44071114381612068816921F0E4
:10A3F000A40181612068016921F010010161E06818
:10A40000012822D030B302282BD02068816941F086
:10A41000800181612068016941F010010161E068FB
:10A42000032818D022E02068816921F04001816171
:10A43000C4E72068816941F480418161C6E72068F2
:10A44000816921F480518161C8E72068816941F008
:10A45000040181610AE02068816941F02001816185
:10A4600004E02068816941F020018161207E401E66
:10A470004106E069401E41EA0020216A491E084366
:10A48000A18A491E40EA01402168C861A068484588
:10A490000FD1A06AE16A401E491E40EA0121206BEB
:10A4A000401E41EA0011A08C401E41EA0040216894
:10A4B000C860206850F8C01FE26B1143016020465D
:10A4C000FFF738FBA6652666012084F85C000020B3
:10A4D00024E70000006400400065004070B5154BA3
:10A4E000134D02681968144C1448491EAA420DD134
:10A4F000196019B9A16D21F00071A165602100F00A
:10A5000007FABDE87040562000F0C6BB0C4DAA42C9
:10A510000DD1196019B9A16D21F00071A165182143
:10A5200000F0F6F9BDE87040582000F0B5BB70BDF2
:10A53000006800406800002000100240000400484D
:10A54000006C0040F0B587B00446142102A8FEF765
:10A550007AFE22682F4CDFF8B8C000252168022659
:10A5600003272D48491C2D4B624526D12160012926
:10A5700007D1996D41F000719965996D01F00071F5
:10A580000191D96C41F00201D964D96C01F002014A
:10A590000191602102910396049505970921069186
:10A5A00002A900F041FA00221146562000F092FB69
:10A5B000562000F082FB07B0F0BDDFF864C06245B2
:10A5C000F9D12160012907D1996D41F00071996598
:10A5D000996D01F000710191D96C41F00201D964CB
:10A5E000D96C01F0020101911821029103960495A2
:10A5F00005970B21069102A900F016FA00221146D8
:10A60000582000F067FB582000F057FBD3E700000C
:10A61000006800406800002000040048001002406C
:10A62000006C004010B50446C80711D00C4B402107
:10A63000A3F128022046FFF72BFD10B109A001F07D
:10A6400036FD0E4A20680E49904202D10120087062
:10A6500010BD0C4A9042FBD10220087010BD0000D2
:10A660005C1C00207265636976652043414E464953
:10A67000464F206572726F720D0A0000006800403C
:10A680006C000020006C0040704790F85C100129BD
:10A6900005D0016E41F004010166012070470221DE
:10A6A00080F85C1001688A6922F001028A61002149
:10A6B00001660020704710B5002190F85C20022A46
:10A6C00005D0016E41F008010166012010BD02684D
:10A6D000936943F001039361032302680AE00A29A6
:10A6E00007D9016E41F00101016680F85C3001205C
:10A6F00010BD491C9469E407F1D00021946924F04D
:10A700001004946102680AE00A2907D9016E41F039
:10A710000101016680F85C30012010BD491C94697C
:10A720002407F1D4916941F0020191610021816512
:10A73000012180F85C10002010BD70477047704701
:10A7400070477047704700002DE9F05F0446884667
:10A750003C4F387801280BD001253D704FF47A7BAF
:10A760005846FFF7EDFA06464FF0000A1EB164E0C6
:10A770000220BDE8F09FC7F804A0DFF8CC90D9F81C
:10A780000000800514D5D9F8000020F40070C9F845
:10A790000000D9F80000400508D5D9F8000020F4E1
:10A7A0008060C9F800000320387710E03D770EE0A4
:10A7B000D9F80000400508D5D9F8000020F48060E1
:10A7C000C9F800000220387701E087F81CA0206853
:10A7D000012807D04FF0FF30C8F80000A56840F20C
:10A7E000FA3B23E06068FFF743FA5846FFF7A8FA00
:10A7F0000646D9F8140048F204018843C9F8140049
:10A8000019E028466168FFF751FA4FF47A70FFF7B4
:10A8100097FA0646D9F8140020EA0B00C9F814008C
:10A82000300002D0C8F8005005E06D1CD4E90201E8
:10A830000844A842E5D8FFF7F1F987F800A03046B0
:10A8400097E70000C00000200020024001200549D9
:10A850004A6942F000424A614969002900DA002051
:10A8600070470000002002402DE9F05F07468B464C
:10A8700014461D460026DFF8688098F8000001287D
:10A880000AD0012088F800004FF47A7A5046FFF78A
:10A8900057FAB14618B120E00220BDE8F09FC8F891
:10A8A000049027B1012F09D0022F07D00DE02246D6
:10A8B0002B465846FFF720FA012606E02146584667
:10A8C000FFF728FA022F00D17E045046FFF738FA2E
:10A8D0001EB104494A69B2434A6188F80090DCE736
:10A8E000C000002000200240002006494A69002ADA
:10A8F00007DA054A8A60054A8A604969002900DA50
:10A90000012070470020024023016745AB89EFCD4D
:10A910002DE9F04F0022DFF8F4804FF0010C0F27F3
:10A920006FE00CFA02F4A1460C40002C68D022F033
:10A93000030303EB0805AB6896074FEA167A07FA9C
:10A940000AF606EA030BB0F1904F04D0304B984260
:10A9500003D1012316E0002314E02E4B984201D1CD
:10A9600002230FE02C4B984201D103230AE02B4B2A
:10A97000984201D1042305E0294B984201D10523D7
:10A9800000E0062303FA0AF35B451ED1DFF894A02A
:10A99000DAF80030A343CAF800300AF1040ADAF802
:10A9A0000030A343CAF800300AF1040ADAF8003094
:10A9B000A343CAF800300AF1040ADAF80030A343CE
:10A9C000CAF80030AB68B343AB600468550003239A
:10A9D000AB401C430460D40800EB8404266A55078E
:10A9E0004FEAD56A07FA0AF5AE43266284689C43AB
:10A9F0008460446824EA09044460C4689C43C460D9
:10AA0000521C31FA02F38CD1BDE8F08F00000140F6
:10AA10000004004800080048000C004800100048EE
:10AA200000140048000401402DE9F84F0022DFF82F
:10AA30007C81DFF878A14FF0010E4FF00F0C08F188
:10AA400004090AF10C0AA9E00EFA02F63340002BC1
:10AA500070D04C68022C01D0122C11D1D40800EB1C
:10AA600084073D6A5407E40E0CFA04FB25EA0B0543
:10AA7000D1F810B00BFA04FB4BEA050BC7F820B075
:10AA8000076854000325A540AF4391F804B00BF0CC
:10AA9000030B0BFA04FB4BEA070BC0F800B04F683E
:10AAA000012F05D0022F03D0112F01D0122F11D169
:10AAB0008768AF43D1F80CB00BFA04FB4BEA070BE5
:10AAC000C0F808B04768B7430E79C6F30016964041
:10AAD0003E434660C668AE438D68A5403543C560B9
:10AAE0004C68E40059D5324C256E45F001052566C9
:10AAF000246E04F0010400942E4C22F003052E195C
:10AB0000B7689407250F0CFA05F4A743B0F1904FEE
:10AB100004D0294CA04203D1012417E0002415E001
:10AB2000264CA04201D1022410E0254CA04202D1C3
:10AB300003240BE031E0234CA04201D1042405E0C2
:10AB4000214CA04201D1052400E00624AC403C4346
:10AB5000B460D8F800409C434D68ED0300D51C4319
:10AB6000C8F80040D9F800409C434D68AD0300D5BB
:10AB70001C43C9F800400D4D08352C689C434E68B5
:10AB8000F60200D51C432C60DAF800409C434D6867
:10AB9000AD0200D51C43CAF80040521C0B6833FAC2
:10ABA00002F47FF451AFBDE8F88F000000040140CB
:10ABB0000010024000000140000400480008004866
:10ABC000000C00480010004800140048002A01D082
:10ABD000816170478162704701488068704700005A
:10ABE000B4000020024881684268114481607047C7
:10ABF000B400002010B50024032000F08BF80020E2
:10AC000000F008F808B1012401E000F029F820461E
:10AC100010BD000070B5054600240F4E7068002876
:10AC200017D04FF47A71B1FBF0F00C490968B1FB11
:10AC3000F0F001F0DBF808B101240BE0102D06D292
:10AC400000222946501E00F045F8356002E001243C
:10AC500000E00124204670BDB4000020E000002088
:10AC600008B50B48016E41F001010166016E01F06B
:10AC700001010091816D41F080518165806D00F08E
:10AC8000805000900348816821F48041816008BDB4
:10AC9000001002400070004000280DDB00F01F0291
:10ACA000012191404009800000F1E020C0F88011AE
:10ACB000BFF34F8FBFF36F8F7047002809DB00F0A1
:10ACC0001F02012191404009800000F1E020C0F8FE
:10ACD00000117047F0B40D460D4B1B68C3F30223FF
:10ACE000C3F10704042C00D90424191D072901D23B
:10ACF000002300E0DB1E012606FA04F1491E29406C
:10AD000099409E40761E16403143F0BC03F0E0BCF3
:10AD10000CED00E000F00701054A10684FF6FF0354
:10AD2000184040EA012003490843106070470000C2
:10AD30000CED00E00000FA0501680122C0F868226D
:10AD4000002280F8602231F8540F40F001000880A2
:10AD5000088840F0020008800020704770B5044663
:10AD60000F4D00290DD001290AD1D4F8700202F04C
:10AD70000AFDA069002803D0286840F0060028607A
:10AD800070BDA06928B101F01CFF286820F0060002
:10AD90002860D4F87002BDE8704002F093BC000057
:10ADA00010ED00E010B50C0605D501F0070100EB31
:10ADB0004110283003E000EB411000F5947099B287
:10ADC00032B1012202730181190C4181002010BDB2
:10ADD00000220273C180F9E700EB4112D0F8700243
:10ADE000D26B02F030BB00EB4112D0F87002D2F807
:10ADF0003C2102F093BB70B504460B0601F007003E
:10AE000004EB40114FF001024FF0000502D528314C
:10AE10004A7002E001F594714D70087094F82802B0
:10AE2000012808D084F82822206803F0C9F884F8A3
:10AE30002852002070BD022070BD70B5044601F09C
:10AE40000F006268904201D9012070BD0B0601F02D
:10AE5000070004EB40114FF001024FF0000502D54E
:10AE600028314A7002E001F594714D708D700870C0
:10AE700094F82802012808D084F82822206803F0DA
:10AE800059F984F82852002070BD022070BD01F0ED
:10AE9000070100EB4110D0F8440170472DE9F04163
:10AEA00004460F0601F0070004EB40114FF00106C5
:10AEB0004FF0000502D528314E7002E001F5947183
:10AEC0004D7008700A61CB704A7802B1C881022BBC
:10AED00000D10D7194F82802012809D084F8286265
:10AEE000206802F08DFE284684F82852BDE8F081E3
:10AEF0000220FBE770B50D4605F0070400EB441196
:10AF000001F594714A618B610022CA614A700C702C
:10AF10006A0704D0006803F06DF9002070BD006876
:10AF200003F068F9F9E770B504460D46616805F06D
:10AF30000700884201D9012070BD29064FF00006A4
:10AF40004FF0010204D504EB401128314A7004E0AF
:10AF500004EB451101F594714E708A70087094F8F5
:10AF60002802012807D084F82822206803F024F959
:10AF7000680702D006E0022070BD04F50C7120685D
:10AF800003F0D6F884F82862002070BD70B50D4635
:10AF900005F0070400EB441128314A618B6100225F
:10AFA000CA6101224A700C706A0704D0006803F07D
:10AFB00021F9002070BD006803F01CF9F9E710B515
:10AFC0000446206803F026FA000402D5204601F06A
:10AFD00083F8206803F01EFA40050CD5206830F88D
:10AFE000441F21F480610180204600F02FF90021E8
:10AFF000204600F057F9206803F00CFA400405D50C
:10B00000206830F8441F21F480410180206803F05B
:10B0100001FA800405D5206830F8441F21F400515E
:10B020000180206803F0F6F9C0041FD5206830F8CD
:10B03000401F21F004010180206830F8401F21F0FA
:10B040000801018094F86002012806D1002084F8EC
:10B05000600200212046FFF781FE204600F00AF939
:10B06000206830F8441F21F480510180206803F0EB
:10B07000D1F900051AD5206830F8401F41F00801C9
:10B080000180206830F8441F21F4006101802068AD
:10B0900030F8401F41F004010180206803F0BAF944
:10B0A000C043C00402D5204600F02CF9206803F00C
:10B0B000B1F900060BD5206830F8441F21F080015B
:10B0C000018094F86002E0B1204600F01BF920688E
:10B0D00003F0A0F9800508D5206830F8441F21F45A
:10B0E00000710180204600F0D9F8206803F092F941
:10B0F000C00505D5206830F8441F21F48071018017
:10B1000010BD206830F8401F41F004010180206824
:10B1100030F8401F41F008010180012084F86002EE
:10B120002068B0F8540000F0F0008008C4F8640211
:10B1300001212046FFF712FEC9E770B586B004462C
:10B14000002C04D094F82902002518B107E0012052
:10B1500006B070BD84F82852204600F03FF8032066
:10B1600084F82902206802F0DBFF002101260BE0B1
:10B1700004EB4110283046700170C181C570056133
:10B1800045618561491CC9B260688842F0D80021D8
:10B190000BE004EB411000F5947045700170C57030
:10B1A000056145618561491CC9B260688842F0D873
:10B1B000142204F110016846FEF72CF894E80F0001
:10B1C00002F0A1FF84F8245084F82962E069012884
:10B1D00002D12046FFF7B0FD0020B9E710B586B0D8
:10B1E0000446142101A8FEF72EF81649206888426B
:10B1F00025D1154CE06C40F00100E064E06C00F0FB
:10B20000010000904FF4C0500190022002900020F5
:10B210000390049001A94FF09040FFF705FCA06D4A
:10B2200040F40000A065A06D00F400000090002232
:10B2300011461420FFF74EFD1420FFF73EFD06B027
:10B2400010BD0000005C00400010024070B50446D4
:10B250000125A068022801D0FEF75EFC2946D4F83B
:10B26000700202F045FAD4F87002BDE8704002F0B6
:10B2700000BA000010B50446A069002806D00648B0
:10B28000016821F00601016001F09BFCD4F8700216
:10B29000BDE8104002F016BA10ED00E0D0F87002E0
:10B2A00002F01ABA10B5044694F8280201280BD00F
:10B2B000012084F8280284F82410206803F0C2F8E2
:10B2C000002084F8280210BD022010BDD0F87022A2
:10B2D00000F50C71104602F017BA10B5044694F848
:10B2E000280201280CD0012084F82802206802F0EE
:10B2F00003FF206803F07FF8002084F8280210BDC7
:10B30000022010BD10B50446D4F8700202F03BFADA
:10B31000A069002804D00348016841F006010160DB
:10B3200010BD000010ED00E02F49304B0A683221BB
:10B330004A432F4900280AD0B0F5007F2DD0086875
:10B3400020F4C06040F48060086000207047086806
:10B35000C0F34120022805D051F8800F20F48070FE
:10B360000860F2E7D1F8800020F48070C1F8800016
:10B37000086820F4C06040F400700860B2FBF3F08D
:10B38000401C00E0401E4A69520501D50028F9D151
:10B3900048694005D9D5032070470868C0F34120AB
:10B3A000022805D051F8800F40F480700860CCE787
:10B3B000D1F8800040F48070C1F88000086820F463
:10B3C000C06040F400700860B2FBF3F0401C00E085
:10B3D000401E4A69520501D50028F9D14869400547
:10B3E000B3D5032070470000E000002040420F006A
:10B3F000007000402DE9F84F044600260027206821
:10B40000BE4D000366D54FF00008A86DC00009D4FA
:10B41000A86D40F08050A865A86D00F080500090A5
:10B420004FF00108DFF8D8A2DAF8000040F480708D
:10B43000CAF80000FFF7D0FB814607E0FFF7CCFB1E
:10B44000A0EB0900022801D9032603E0DAF8000086
:10B45000C005F3D526B13746B8F1010F36D039E033
:10B46000D5F8900000F4407080B1216D81420DD07C
:10B4700055F8900F20F44070296841F4803129601C
:10B48000296821F48031296045F89009C00711D05E
:10B49000FFF7A2FB814641F2883A07E0FFF79CFBE9
:10B4A000A0EB0900504501D9032603E0D5F8900030
:10B4B0008007F3D50EB13746CEE7D5F89000216D61
:10B4C00020F440700843C5F89000C5E7A86D20F04F
:10B4D0008050A8652078C00707D0D5F8880061683B
:10B4E00020F003000843C5F888002078800707D5BE
:10B4F000D5F88800A16820F00C000843C5F8880042
:10B500002078400707D5D5F88800E16820F03000A2
:10B510000843C5F888002078000707D5D5F88800CB
:10B52000216920F0C0000843C5F888002078C006D3
:10B5300007D5D5F88800616920F440700843C5F844
:10B5400088002078800607D5D5F88800A16920F406
:10B5500040600843C5F888002078400607D5D5F834
:10B560008800E16920F440500843C5F8880020783D
:10B57000000607D5D5F88800216A20F4404008432A
:10B58000C5F888002088C00507D5D5F88800616A0D
:10B5900020F440300843C5F888002068800307D5B0
:10B5A000D5F89C00A16A20F003000843C5F89C0070
:10B5B0002088800507D5D5F88800E16A20F440206E
:10B5C0000843C5F88800208840050FD5D5F88800C5
:10B5D000216B20F440100843C5F88800206BB0F5BB
:10B5E000801F03D1E86840F48010E86020880005DF
:10B5F0000FD5D5F88800616B20F440000843C5F8EA
:10B600008800606BB0F5800F03D1E86840F48010CB
:10B61000E8602088C0040FD5D5F88800A16B20F021
:10B6200040700843C5F88800A06BB0F1807F03D15B
:10B63000E86840F48010E86020884FF000618004E2
:10B640000ED5D5F88800E26B20F040601043C5F8B5
:10B650008800E06B884203D1E86840F48010E8601D
:10B66000208840040ED5D5F88800226C20F0406078
:10B670001043C5F88800206C884203D1E86840F484
:10B680008010E860208800040FD5D5F88800616C30
:10B6900020F040500843C5F88800606CB0F1805F2E
:10B6A00003D1E86840F48030E8602068C0030FD51B
:10B6B000D5F88800A16C20F040400843C5F8880008
:10B6C000A06CB0F1804F03D1E86840F48030E860AE
:10B6D000206840030FD5D5F89C00E16C20F44010A1
:10B6E0000843C5F89C00E06CB0F5001F03D1E86882
:10B6F00040F48010E8603846BDE8F88F0010024042
:10B70000007000402DE9F04704460D460027002C4C
:10B7100017D0DFF8A091D9F8000000F00F00A84280
:10B7200011D2D9F8000020F00F002843C9F800001A
:10B73000D9F8000000F00F00A84204D00120BDE8B5
:10B74000F0870120FBE720785B4EC00741F2883A82
:10B750004ED06068DFF86481032806D002281ED02E
:10B760003068400520D40120E9E73068800101D429
:10B770000120E4E701F0B2F9404520D9B06810F0AB
:10B78000F00F04D02078800719D5A068B8B9B06848
:10B7900020F0F00040F08000B06080270FE03068BB
:10B7A000800301D40120CAE700F0BAF8404506D969
:10B7B000B06820F0F00040F08000B0608027B068F2
:10B7C000616820F003000843B060FFF705FA804687
:10B7D00007E0FFF701FAA0EB0800504501D903206C
:10B7E000ADE7B068616800F00C00B0EB810FF0D1FC
:10B7F0002068810715D5400703D5B06840F4E060A4
:10B80000B0602078000705D5B06820F4605040F49F
:10B81000E060B060B068A16820F0F0000843B0605C
:10B8200005E0802F03D1B06820F0F000B060D9F8B7
:10B83000000000F00F00A84217D9D9F8000020F04E
:10B840000F002843C9F80000FFF7C6F9074606E0D5
:10B85000FFF7C2F9C01B504501D903206FE7D9F8A3
:10B86000000000F00F00A842F2D12078400705D573
:10B87000B068E16820F4E0600843B0602078000719
:10B8800006D5B068216920F4605040EAC100B0607C
:10B8900000F046F8B1680A4AC1F30311515C01F0A7
:10B8A0001F01C8400749086007480068BDE8F04725
:10B8B000FFF7B0B9002002400010024000B4C404F9
:10B8C00014F20008E0000020B400002001480068E5
:10B8D00070470000E000002000B5FFF7F7FF0549C2
:10B8E0008968054AC1F30221515C01F01F01C8407B
:10B8F00000BD00000010024024F2000800B5FFF770
:10B90000E5FF05498968054AC1F3C221515C01F090
:10B910001F01C84000BD00000010024024F20008D2
:10B9200010B51A4A9068C0F38101194801290BD05B
:10B9300091684410C1F38101022906D09168C1F3D6
:10B940008101032903D0002010BD204610BDD1681D
:10B9500001F00303D168C1F30311491C032B0DD07F
:10B96000B0FBF1F0D168C1F306214843D168C1F3BF
:10B970004161491C4900B0FBF1F010BDB4FBF1F08E
:10B98000D168C1F306214843F0E7000000100240EF
:10B990000024F4002DE9F8430446002C0CD0207854
:10B9A000FE4DC00752D0A86800F00C00E96801F015
:10B9B00003010C2803D004E00120BDE8F88303292B
:10B9C00016D0082814D06068B0F5803F17D0B0F5C5
:10B9D000A02F19D0286820F480302860286820F42F
:10B9E00080202860606818B3FFF7F6F806461BE071
:10B9F000286880032AD5606840BB0120DDE72868FD
:10BA000040F480302860EDE7286840F4802028600A
:10BA1000286840F480302860E4E7FFF7DDF8801BF9
:10BA2000642801D90320C8E728688003F5D50DE014
:10BA3000FFF7D2F8064606E0FFF7CEF8801B642831
:10BA400001D90320B9E728688003F5D4207880075E
:10BA50004ED5A86800F00C00E96801F003010C283D
:10BA600001D102290BD0042809D0E06870B32868FE
:10BA700040F480702860FFF7AFF806461BE02868A6
:10BA8000400501D5E06868B16868217C20F0FE407F
:10BA900040EA01606860C2480068FFF7BBF838B34D
:10BAA00001208AE7012088E7FFF796F8801B02282B
:10BAB00001D9032081E728684005F5D56868217C15
:10BAC00020F0FE4040EA0160686011E0286820F440
:10BAD00080702860FFF780F8064606E0FFF77CF8E4
:10BAE000801B022801D9032067E728684005F5D4A8
:10BAF000207800072CD56069A8B1D5F8940040F0F3
:10BB00000100C5F89400FFF767F8064606E0FFF766
:10BB100063F8801B022801D903204EE7D5F8940072
:10BB20008007F4D514E0D5F8940020F00100C5F8A2
:10BB30009400FFF751F8064606E0FFF74DF8801B2A
:10BB4000022801D9032038E7D5F894008007F4D4FF
:10BB5000207840076FD54FF00008A86DC00009D4C9
:10BB6000A86D40F08050A865A86D00F0805000904E
:10BB70004FF001088B4E3068C00511D4306840F496
:10BB800080703060FFF728F8074606E0FFF724F8DA
:10BB9000C01B022801D903200FE73068C005F5D586
:10BBA000A068012813D0052818D055F8900F20F070
:10BBB00001002860286820F0040045F89009A0687A
:10BBC00041F2883608B3FFF707F8074618E0D5F8C2
:10BBD000900040F00100C5F89000F0E755F8900F94
:10BBE00040F004002860286840F0010045F8900902
:10BBF000E5E7FEF7F1FFC01BB04201D90320DCE608
:10BC0000D5F890008007F4D50EE0FEF7E5FF074673
:10BC100006E0FEF7E1FFC01BB04201D90320CCE6ED
:10BC2000D5F890008007F4D4B8F1010F03D1A86DC6
:10BC300020F08050A865207880062CD5A069A8B196
:10BC4000D5F8980040F00100C5F89800FEF7C4FF51
:10BC5000064606E0FEF7C0FF801B022801D903203C
:10BC6000ABE6D5F898008007F4D514E0D5F8980035
:10BC700020F00100C5F89800FEF7AEFF064606E08A
:10BC8000FEF7AAFF801B022801D9032095E6D5F80C
:10BC900098008007F4D4E069F0B3A9684FF0FF374B
:10BCA000C1F38101032962D002280FD0286820F057
:10BCB00080702860E86820F00300E860E8683A498E
:10BCC0000840E860FEF788FF04464CE0286820F052
:10BCD00080702860FEF780FF064606E0FEF77CFFD6
:10BCE000801B022801D9032067E628688001F5D46B
:10BCF00054F8201F6068228A401E41EA0010A168A3
:10BD000007EB5202090241EA42510843217D07EB49
:10BD1000510140EA416000E066E0217B40EAC160F9
:10BD2000E968224A11400843E860286840F08070C2
:10BD30002860E86840F08070E860FEF74DFF044638
:10BD400006E0FEF749FF001B022801D9032034E674
:10BD500028688001F5D547E0FEF73EFF001B02286A
:10BD600001D9032029E628688001F5D43CE00128A8
:10BD700038D0E868226A00F00301914230D1616A4C
:10BD800000F0F002491EB2EB011F29D1A26A00F4B3
:10BD9000FE41B1EB022F23D10AE000000010024067
:10BDA000B400002000700040FFFFEEFE0C809F01F9
:10BDB00094F82C1000F07842B2EBC16F10D1228EB3
:10BDC00000F4C00107EB5202B1EB425F08D194F8D6
:10BDD000341000F0C06007EB5101B0EB416F03D0AD
:10BDE0000120EAE50120E8E50020E6E510B5401E67
:10BDF000B0F1807F01D3012010BD4FF0E0246061DD
:10BE00000F21601702F064FC0020A0610720206170
:10BE1000002010BD4FF48055064C6E0001222946CB
:10BE20002046FEF7D3FE012231462046FEF7CEFE25
:10BE3000F4E7000000040048F0B500230A2530268E
:10BE40003727002412E0B5EB107F04D906EB107CF5
:10BE500001F813C003E007EB107C01F813C00001E8
:10BE600001EB430C8CF801405B1CDBB29342EAD33C
:10BE7000F0BD00003FB581B029A0BDF80C10029ABA
:10BE800000F015F92E482D4901604FF44071816092
:10BE90000024C46004744474012585741021416138
:10BEA00085610F22C2610422026241628562032120
:10BEB000C162056345638463C463FEF721FA08B178
:10BEC000FDF72AFE1E48C8300460446002218160EC
:10BED000C56040F22131016144610146C838FEF776
:10BEE00064F808B1FDF718FE022200231146144839
:10BEF0000094FEF789F808B1FDF70EFE1048FEF732
:10BF0000C4FB08B1FDF708FE002201210C48FDF733
:10BF1000B5FF002801D0FDF7FFFD05B030BD0000E2
:10BF2000626174653A253034582C6D61736B636FB0
:10BF300064653A253038580D0A000000006800405A
:10BF40000C1B0020F8B50024254924480860002572
:10BF50008D60CD600D744D748D7411204861012683
:10BF60008E610422CA6105220A6248628E6202273B
:10BF7000CF620F634E638D63CD630846FEF7C0F951
:10BF800000B1012416486430056045608760C660D2
:10BF900040F266610161456101466438FEF705F8CB
:10BFA00000B102240222002311460D480095FEF73D
:10BFB0002BF800B10324002201210948FDF75EFFA0
:10BFC00000B104240648FEF750F800B105240448E7
:10BFD000FEF75BFB00B106242046F8BD006C004074
:10BFE000701B002000B587B0142102A8FDF72BF9C3
:10BFF0001748C16C41F00401C164C16C01F0040137
:10C000000191C16C41F02001C164C16C01F02001BB
:10C010000191C16C41F00101C164C16C01F00101E9
:10C020000191C16C41F00201C164C06C00F00200DA
:10C0300001904FF46A500290012003900020049078
:10C04000059002A90348FEF7EFFC07B000BD000011
:10C05000001002400004004810B500220F491048AB
:10C0600001F0C9F908B1FDF757FD0E490C4801F080
:10C07000AFFB08B1FDF750FD0B49094800F045FF43
:10C0800008B1FDF749FD064801F054FC002803D033
:10C09000BDE81040FDF740BD10BD000004000020C9
:10C0A000C4090020C001002058000020FEE70FB4A2
:10C0B00010B5C0B043AA6846429902F0F7FA0446A8
:10C0C000A2B2694640F6FF0002F038FA40B02046BE
:10C0D00010BC5DF814FB70472DE9F05F044640F694
:10C0E0008F7840F2064740F2024941E1B0F844102F
:10C0F00001F00F0656B330F826A05FEA0A4174D566
:10C1000030F8261001EA080141F0800120F82610DD
:10C1100004EB461505F59475287B00287ED0297818
:10C12000206830F82120520479D5B0F8502009EB6E
:10C13000C1010244515AC1F3090BBBF1000F04D0F5
:10C140002A895B46696902F068F9CCE0C9062CD4FB
:10C15000018848F60F72114041F40041018004F15A
:10C1600028052068B0F850100844297809EBC1016F
:10C17000405AC0F30900E861696908446861002118
:10C180002046FEF729FE94F824000028ADD0A869C7
:10C190000028AAD194F82400216840F08000A1F87A
:10C1A0004C00002084F82400E2E004F59475018836
:10C1B0000A051BD5B0F850100844297807EBC101D7
:10C1C000405AC0F30903EB61EA8804F50C7120685A
:10C1D00002F023F92068018801EA080141F080019A
:10C1E00001802046FFF772F8C2E09DE0090456D5B1
:10C1F000018801EA080141F0800101802068B0F85F
:10C2000050100844297807EBC101405AC0F30900D7
:10C21000E86188B1696979B183B201E040E052E038
:10C22000EA88206802F0F9F8E969686908446861F9
:10C2300000212046FEF7D7FD2068B0F850100844D2
:10C2400000F20640296959B13E2912D84A08C907A7
:10C2500000D0521C4FF6FF7101EA8221018011E0EB
:10C26000018821F4F8410180018841F400410180F6
:10C2700008E04A09C90600D1521E4FF4004141EAC4
:10C2800082210180206801884BF68F72114081F471
:10C29000805181F4005148F280021143018067E02F
:10C2A0002068B0F850102A78014407EBC202895A7E
:10C2B000C1F3090BBBF1000F21D0EA885B46696925
:10C2C00002F0ABF81BE0B0F8502007EBC1010244CC
:10C2D000515AC1F3090BBBF1000F04D06A895B46C8
:10C2E000696902F09AF82978206830F8212048F628
:10C2F0008F731A4048F2C0031A4320F82120E869DE
:10C300005844E861686900EB0B026A61AB6913B1DC
:10C310002869584504D929782046FEF764FD03E0D2
:10C3200029782046FEF7E6FD5FEA0A6020D504EB97
:10C3300046102830216831F8262048F60F731A403D
:10C3400042F4004221F826202168B1F8502011441F
:10C35000027809EBC202895AC1F30901C16142693D
:10C360000A444261836963B101782046FEF70EFEFC
:10C370002068B0F8441009043FF5B8AE0020BDE8CD
:10C38000F09F01782046FEF727FDF1E77047000097
:10C3900070B588B0344D0026A87800281AD001283E
:10C3A0001FD0022847D0AE70304A2878A2F1180179
:10C3B000A1F1580401284CD0022809D12E70069210
:10C3C00018226846FCF726FF48340FCCFDF7A0FA88
:10C3D00008B070BD2448001DFDF71CFD0120A870A9
:10C3E000E2E7214841F28831001DFDF727FB0028D4
:10C3F000DAD01D48001DFDF70DFD1DA06968FFF78F
:10C4000056FEFFF78DFA01461FA0FFF750FEFFF71B
:10C410005DFA014624A0FFF74AFEFFF75DFA0146E8
:10C4200028A0FFF744FEFFF769FA01462CA0FFF7AA
:10C430003EFEAE70B8E70C4840F6B831001DFDF77F
:10C44000FDFA0028B0D02D4800780028ACD0AE709E
:10C45000AAE72E70069218226846FCF7DBFE4834E5
:10C460000FCCFDF7C7F9B3E76C0000205C1C00207F
:10C4700066697665207365636F6E647320686572A4
:10C48000652D25750D0A000048414C5F5243435FFE
:10C49000476574537973436C6F636B467265713A89
:10C4A00025750D0A0000000048414C5F5243435F70
:10C4B00047657448434C4B467265713A25750D0AC1
:10C4C0000000000048414C5F5243435F4765745091
:10C4D000434C4B31467265713A25750D0A000000D8
:10C4E00048414C5F5243435F47657450434C4B3265
:10C4F000467265713A25750D0A000000EC1A00209D
:10C500000FB42DE9F043C7B00024BDF83A014FF451
:10C510000066A0F58070770001250DF59C784FF43A
:10C5200000590B2818D2DFE800F0061C7A1717D044
:10C530001717FCFBFA00E8A0FFF7B9FD9DF83E01D4
:10C5400000029DF83F11084480B2B04201D0A0F62D
:10C550000100E5A0FFF7ABFD47B0BDE8F0035DF8D3
:10C5600014FBE5A0FFF7A3FD9DF83E01E64C000299
:10C570009DF83F11084481B22181E4A0FFF797FDA7
:10C580009DF8400160709DF8410100069DF8421140
:10C5900000EB01409DF8431100EB01209DF8441190
:10C5A00001446160DFA0FFF782FD9DF845010002B4
:10C5B0009DF84611084481B261819DF8472122739C
:10C5C0009DF8483163739DF84901A0730090DBA08A
:10C5D000FFF76DFD207838B100223946E348FEF7B9
:10C5E000F5FAE348FDF72BFD0A20FDF735FC257031
:10C5F0000FCCFFF73FFC8DF81C00BDF83A1101236A
:10C6000007AA304601F0C0FF01223946D748FEF79D
:10C61000DDFAD84AD8A1DCA0FFF749FD9CE7DEA0EF
:10C62000FFF745FD9DF83E01DF4C00029DF83F11EC
:10C63000084420819DF8400160709DF8410100068A
:10C640009DF8421100EB01409DF8431100EB0120E1
:10C650009DF84411084460609DF8450100029DF872
:10C660004611084460819DF8470120739DF84801F8
:10C6700060739DF84901A073A348817B0091437BBF
:10C68000027B4189C9A0FFF712FD207838B1002252
:10C690004946B648FEF79AFAD048FDF7D0FC0A2082
:10C6A000FDF7DAFB25700FCCFFF74CFC8DF81C0072
:10C6B00001224946AD48FEF789FABDF83A11012337
:10C6C00007AA304601F060FF46E7C5A0FFF7EFFC80
:10C6D0009DF83E0107AE28B3C54F00253D617D6141
:10C6E000BD61FD613D624FF40020F860C1A0FFF71D
:10C6F000DEFC9DF83F0100285BD04FF08040786061
:10C700009DF84001002856D04FF00050B8609DF8C9
:10C71000410100069DF8421100EB014003E0BDE03D
:10C7200097E066E010E09DF8431100EB01209DF8D2
:10C73000441145183D609DF8450100029DF84611E1
:10C740000922084483B240E0B14D40F22130286014
:10C7500000206860A8604FF42021E96028614FF450
:10C76000801169614900A961E8612862A9A0FFF709
:10C770009EFCADA02968FFF79AFC3455641CA4B256
:10C78000102CFAD39DF81D209DF81C10AAA0FFF7CD
:10C790008EFC9F491422103168460596FCF73AFD3D
:10C7A0000FCD01F069FE00288ED0AAA0FFF77FFC14
:10C7B000D2E67D60A4E7BD60A9E710464044521C64
:10C7C000807992B23055641CA4B29C42F5D388495A
:10C7D0001422103168460596FCF71CFD3F1D2846C3
:10C7E0000ECF01F065FE0028E2D0A0A0FFF75FFCAD
:10C7F000B2E6A4A0FFF75BFC08F10601012002F0FD
:10C80000D1FB48B18DF81C50BDF83A11012307AA9D
:10C81000304601F0B9FE9FE600208DF81C00BDF8FF
:10C820003A11012307AA304601F0AEFE99A0FFF7A6
:10C830003EFC3C20FDF710FBBFF34F8F9D48016885
:10C840009D4A01F4E06111430160BFF34F8F00BFC7
:10C85000FDE79AA0FFF72BFC2B4C207848B1002273
:10C8600039464248FEF7B2F9002020704048FDF7F3
:10C87000E6FB4D4C207848B1002249463B48FEF784
:10C88000A5F9002020705548FDF7D9FBBDF83A11F5
:10C89000012307AA304601F077FE5DE68BA0FFF783
:10C8A00006FC08F10601022002F07CFB48B18DF87D
:10C8B0001C50BDF83A11012307AA304601F064FE6E
:10C8C0004AE600208DF81C00BDF83A11012307AAA2
:10C8D000304601F059FE3FE63031303020636D6460
:10C8E000206465616C0D0A005265636976652041BC
:10C8F0006E737765720D0A003031303120636D64DC
:10C90000206465616C0D0A00EC1A002043616E50D2
:10C910006172612E42616E64526174653A253034F1
:10C92000580D0A0043616E506172612E4D61736B48
:10C93000436F64653A253038580D0A0043616E3103
:10C94000506172612E7072657363616C65723A2515
:10C95000642C534A573A25642C6273313A25642C6F
:10C960006273323A25640D0A00000000000400489A
:10C970000C1B0020FC0100204C51554346442D5611
:10C9800031303031000000005645523A25732C53A7
:10C990004E3A25730D0A00003031303220636D6449
:10C9A000206465616C0D0A00FC1A002043616E3240
:10C9B000506172612E7072657363616C65723A25A5
:10C9C000642C534A573A25642C6273313A25642CFF
:10C9D0006273323A25640D0A00000000701B0020CB
:10C9E0003031303520636D64206465616C0D0A0060
:10C9F000101C0020434C415353494343414E207384
:10CA0000656E64204252535F6F66660D0A00000037
:10CA1000EC1B0020464443414E2073656E64204267
:10CA200052535F4F4E0D0A00464443414E5F494406
:10CA30003A253038580D0A0054544275665B305D13
:10CA40003A253032582C54627566323A25303258C5
:10CA50000D0A000043616E312064617461207365CA
:10CA60006E64206661696C0D0A00000043616E32DD
:10CA700020646174612073656E64206661696C0D69
:10CA80000A0000003031303820636D642064656135
:10CA90006C0D0A006465766963652064656C617974
:10CAA0002036307320616E642072657365740D0AE0
:10CAB000000000000CED00E00400FA0530313039D0
:10CAC00020636D64206465616C0D0A003031306153
:10CAD00020636D64206465616C0D0A001049C868AC
:10CAE00000F00302C868C0F30310401C032A0ED0F4
:10CAF0000C4AB2FBF0F0CA68C2F306225043C96880
:10CB0000C1F34161491C4900B0FBF1F07047064A8E
:10CB1000B2FBF0F0CA68C2F306225043EFE7000010
:10CB2000001002400024F40000127A002DE9F041C8
:10CB30000024194F3D4640F20F1631461748FCF7C6
:10CB400082FB396816A0FFF7B2FA3968194A00204B
:10CB5000124B914215D118602819191900790871E2
:10CB6000641CA4B20B2CF7D31349384602F060FAC8
:10CB700032460A49384602F0B5FA58B10120BDE8FC
:10CB8000F08118602819191900790871641CA4B281
:10CB90000B2CF7D30020F2E700000208F801002078
:10CBA000557064617465466C61673A253038580D7C
:10CBB0000A00000055AA55AA000802087047FEF7AF
:10CBC00011B800F001B8000010B5A8B038211AA8BB
:10CBD000FCF739FB142115A8FCF735FB54216846F6
:10CBE000FCF731FB0020FEF79FFB21201A904FF449
:10CBF00080301B9001202090022021900324229459
:10CC000023905021249125900821269127901AA83D
:10CC1000FEF7C0FE08B1FCF77FFF0F2015901694B9
:10CC20000024179418941994072115A8FEF76AFD9B
:10CC300008B1FCF771FF43F20300009001940294E5
:10CC40004FF000700E900F946846FEF7D3FB08B1CA
:10CC5000FCF762FF064C012211032046FDF7B6FFE8
:10CC6000012251032046FDF7B1FF28B010BD00009E
:10CC7000000400480448016841F470010160024961
:10CC8000024880390860704788ED00E00090000895
:10CC900010B5002806D00A46054906A000F07AFB28
:10CCA000034810BD0A46024902A000F073FBF7E7F3
:10CCB0001C11002043444320436F6E6669670000E7
:10CCC000D0F8B802002804D00021C0F814120020C7
:10CCD00070470220704770B50546D5F8B84228461F
:10CCE00000F05FFCC4F80C02D5F8B80280B1D5F8AA
:10CCF000BC12D4F80402CA6804F503719047D4F852
:10CD00000C1219B1D4F8040201F0E4FB002070BD4C
:10CD1000022070BD70B5044600268121204600F037
:10CD200089FB0025E5620121204600F083FBC4F861
:10CD30006C518221204600F07DFB2564D4F8B802B6
:10CD400040B104F52E74606840688047206800F0A8
:10CD500052FF2560304670BD1220088000487047A1
:10CD60002800002010B5D0F8B842D0F8BC12002935
:10CD70000BD094F80002FF2807D08B6894F80122AA
:10CD800021469847FF2084F80002002010BD0000D3
:10CD90000A21018000487047E800002043210180FB
:10CDA0000048704738010020432101800048704747
:10CDB000F400002043210180004870477C010020DE
:10CDC0002DE9F04104460026012727744023022262
:10CDD0008121204600F038FCE76240230222012135
:10CDE000204600F031FCC4F86C7108230322822134
:10CDF000204600F029FC27644FF4077000F0FCFE89
:10CE0000C4F8B80298B10546D4F8BC02006880475F
:10CE100005F5017500202861686127744023012110
:10CE200020462A6800F01CFC3046BDE8F08101264F
:10CE3000FAE7000010B5002806D00A46054906A00A
:10CE400000F0A8FA034810BD0A46024902A000F00B
:10CE5000A1FAF7E71C11002043444320496E746592
:10CE60007266616365000000042008800048704716
:10CE70002400002010B50A46024903A000F08AFAF7
:10CE8000004810BD1C11002053544D6963726F653A
:10CE90006C656374726F6E696373000010B500286F
:10CEA00006D00A46054906A000F074FA034810BDF2
:10CEB0000A46024902A000F06DFAF7E71C110020B3
:10CEC00053544D3332205669727475616C20436F30
:10CED0006D506F727400000010B5D0F8B8120029C0
:10CEE00011D0027C3AB1D1F804224023012100F094
:10CEF000B7FB002010BDD1F804224FF400730121CC
:10CF000000F0AEFBF5E7022010BD0246022000292A
:10CF100002D0C2F8BC1200207047000010B51A20E1
:10CF20000880FCF77DFF014810BD00003C00002098
:10CF3000D0F8B802C0F8041200207047D0F8B80248
:10CF4000C0F80812C0F81022002070472DE9FC41FB
:10CF500005460C46D5F8B8720020019000900026D6
:10CF6000207810F060012DD0202907D021462846D6
:10CF700000F0A2F802263046BDE8FC81E288CAB182
:10CF800000060BD5D5F8BC1260788B6839469847F7
:10CF9000E2883946284600F0B5F8ECE7607887F873
:10CFA0000002A07987F80102E2883946284600F09D
:10CFB0008FF8E0E7D5F8BC12607800228B68214634
:10CFC0009847D8E7607848B10A2817D00B2825D0B1
:10CFD0002146284600F070F80226CCE795F89C021E
:10CFE000032805D02146284600F066F80226C2E74D
:10CFF00002226946284600F085F8BCE795F89C02B5
:10D00000032805D02146284600F056F80226B2E74C
:10D01000012201A9284600F075F8ACE795F89C02BA
:10D020000328A8D02146284600F046F80226A2E7A9
:10D0300010B5D0F8B812002912D0D1F814220AB1D4
:10D04000012010BD01F502710122CA608A680263E5
:10D050000A8993B20A68812100F09DFB002010BD6F
:10D06000022010BD10B5D0F8B422526890470020BD
:10D0700010BD90F89C22012A05D0022A03D0032A71
:10D0800001D000F019B84988012904D10021C0F865
:10D09000A41200F044B8704710B513460A460021A8
:10D0A00000F0DEFA002010BD10B513460A4600213C
:10D0B00000F071FB002010BD10B504468021204611
:10D0C00000F04FFB2046BDE81040002100F049BBB6
:10D0D00010B50323C0F89432C0F85C21C0F8602179
:10D0E00013460A46002100F0BBFA002010BD10B51F
:10D0F0000521C0F8941200231A46194600F0B0FA30
:10D10000002010BD10B50223C0F89432C261026243
:10D1100013460A46002100F03EFB002010BD10B56A
:10D120000421C0F8941200231A46194600F033FB7C
:10D13000002010BD0A46D188012902D01146FFF710
:10D14000BBBF90F89C12012906D0022904D0032904
:10D1500009D01146FFF7B0BF00218160012200F124
:10D160000801FFF7CFBF0122011DFFF7CBBF2DE95B
:10D17000F84304460F4600200090002600257988D9
:10D18000080A062874D006DC012833D0022839D0DA
:10D19000032804D14CE007286BD00F281BD0394658
:10D1A0002046FFF789FF0125002D12D1BDF80000B0
:10D1B00048B1FA883AB1824200D90246009231461B
:10D1C0002046FFF79FFFF888002802D12046FFF78E
:10D1D000A6FFBDE8F883D4F8B002C26922B1207C72
:10D1E000694690470646DFE739462046FFF764FF69
:10D1F0000125D9E7D4F8B012207C0A686946904727
:10D200000646D1E7207C4FF0020840B1D4F8B402C2
:10D21000C16A68468847064686F80180C4E7D4F8A4
:10D22000B402816A68468847064686F80180BBE7F3
:10D23000C8B2062860D2DFE800F003122332415062
:10D24000D4F8B002426822B1207C69469047064675
:10D25000AAE739462046FFF72FFF0125A4E7D4F8B7
:10D26000B002826832B1207C6946904706469BE74F
:10D2700048E056E039462046FFF71EFF012593E7B8
:10D28000D4F8B002C26822B1207C694690470646B5
:10D290008AE739462046FFF70FFF012584E7D4F8D7
:10D2A000B002026922B1207C6946904706467BE7BE
:10D2B00039462046FFF700FF012575E7D4F8B00294
:10D2C000426922B1207C6946904706466CE73946A0
:10D2D0002046FFF7F1FE012566E7D4F8B002826927
:10D2E00022B1207C6946904706465DE739462046D4
:10D2F000FFF7E2FE012557E739462046FFF7DCFE3F
:10D30000012551E7207C28B139462046FFF7D4FE9D
:10D31000012549E7D4F8B402416B684688470646C0
:10D3200042E7207C28B139462046FFF7C5FE01259B
:10D330003AE7D4F8B402016B6846884706460721ED
:10D34000717031E7002102E0491CC9B2401C02782B
:10D35000002AF9D1084670470A4690F89C12012924
:10D3600006D0022904D0032902D01146FFF7A4BE3B
:10D37000D188022902D01146FFF79EBE0021C1606C
:10D38000D0F8A41209B10221C160022200F10C01FF
:10D39000FFF7B8BE70B504460D461646002C17D0F0
:10D3A0002046FFF7CFFF022101EB400030803078AC
:10D3B0002870032102206970002306E0411CC9B2D5
:10D3C0002A54641C481CC0B26B542278002AF5D140
:10D3D00070BD01460020002906D0012905D0022990
:10D3E00005D0032905D00220704702207047012094
:10D3F00070470220704710B5002810D0D0F8B43222
:10D4000013B10023C0F8B43209B1C0F8B012012141
:10D4100080F89C12027000F0C9F8002010BD0220B4
:10D4200010BD10B5D0F8C002FDF707FDBDE81040F3
:10D43000FFF7CFBF10B5D0F8C002FDF7DCFCBDE8A8
:10D440001040FFF7C6BF70B504461346002909D047
:10D45000D4F8B40242691AB194F89C02032859D056
:10D46000022070BD04F11400D4F8941200250229A2
:10D4700003D0042940D0F1B342E0D0E903218A422D
:10D480000DD9511AC1608AB219462046FFF70CFE29
:10D4900000231A461946204600F0E2F830E0806882
:10D4A000B0FBF1F201FB12029AB9884211D3D4F811
:10D4B000981288420DD2002211462046FFF7F4FD53
:10D4C000C4F8985200231A461946204600F0C8F8BE
:10D4D00016E0D4F8B402C16829B194F89C0203287C
:10D4E00001D1204688478021204600F03AF92046A5
:10D4F000FFF7FDFD04E0FFE78021204600F031F951
:10D5000094F8A002012807D1204600F06AF984F8B7
:10D51000A05201E020469047002070BD70B504463F
:10D5200008461146002809D0D4F8B4128A691AB105
:10D5300094F89C1203292FD0022070BD04F5AA7024
:10D54000D4F89432032B02D0052B1DD027E0D0E96C
:10D5500003539D420AD9EB1AC3600069834200D38A
:10D5600003469AB22046FFF797FD18E0D4F8B402BC
:10D57000016929B194F89C02032801D1204688470B
:10D580002046FFF7CCFD0AE00020C4F894020021F9
:10D59000204600F0E6F802E00146204690470020D1
:10D5A00070BDD0F8C002FDF772BC000010B5044693
:10D5B0001C48C0F87042C4F8C0021B490160082131
:10D5C0004160022181600161002141618161C1618D
:10D5D0000162FDF7B2FD08B1FCF79EFA04F5307464
:10D5E0000022182311462068FDF7DCFB5823002297
:10D5F00080212068FDF7D6FBC0230022812120680E
:10D60000FDF7D0FB4FF48873002201212068FDF75D
:10D61000C9FB4FF48073002282212068FDF7C2FB12
:10D62000002010BDA80E0020005C00400A06D0F8C3
:10D63000C00201F07F0100EB411002D590F82A00F2
:10D64000704790F82A01704710B514461A46D0F872
:10D65000C0022346FDF722FCBDE81040FFF7B9BE2B
:10D6600010B5D0F8C002FDF745FCBDE81040FFF74B
:10D67000B0BE70B504460022402311462046FFF795
:10D68000E3FF0125C4F858514026C4F864614023E3
:10D69000002280212046FFF7D7FFA561666284F84B
:10D6A0009C520020C4F894026060C4F8A402D4F82C
:10D6B000B80228B1D4F8B40200214268204690474D
:10D6C000002070BD90F89C12042903D190F89D129F
:10D6D00080F89C120020704710B590F89C12032926
:10D6E00004D1D0F8B412C96901B18847002010BD37
:10D6F00001740020704710B5D0F8C002FDF7D2FDCC
:10D70000BDE81040FFF765BE70B5044604F52A7009
:10D71000054600F049F80120C4F89402B4F8AE02BE
:10D72000C4F8980294F8A82212F01F000AD0012829
:10D730000DD0022810D002F08001204600F011F830
:10D74000002070BD2946204600F0F9F8F8E7294688
:10D75000204600F01BFAF3E72946204600F024F9A2
:10D76000EEE710B5D0F8C002FDF7DDFBBDE81040D4
:10D77000FFF72FBE10B5D0F8C002FDF7AEFDBDE833
:10D780001040FFF726BE00F5277001784170042194
:10D7900001700020704710B5D0F8C002FDF7F6FB0D
:10D7A000BDE81040FFF715BE0A7802704A78427053
:10D7B0008A78CB7802EB032242800A794B7902EB1C
:10D7C000032282808A79C97902EB0121C1807047E6
:10D7D00002460020002902D0C2F8B412704702208D
:10D7E00070470020704770B504468888002821D112
:10D7F000C888F8B9488880281CD200F07F0594F8C2
:10D800009C0203280DD084F89E5229462046FFF73B
:10D8100072FF2046FFF783FC45B1022084F89C028A
:10D8200070BD2046BDE87040FFF746BC012084F87B
:10D830009C0270BD2046BDE87040FFF73DBC10B5AE
:10D840000224D0F8B422002A03D01268904700B90D
:10D850000024204610BD000070B504460E46304D31
:10D86000B1782970012905D931462046BDE87040BC
:10D87000FFF722BC94F89C0202280BD0032823D087
:10D8800031462046FFF718FC29782046BDE8704055
:10D89000FFF7E8BB99B16160032084F89C02204641
:10D8A000FFF7CDFF022804D02046BDE87040FFF707
:10D8B00036BC31462046BDE87040FFF7FDBB204630
:10D8C000BDE87040FFF72BBC91B16068884221D061
:10D8D000C1B22046FFF7C6FB297861602046FFF7FA
:10D8E000AEFF022810D02046BDE87040FFF717BCFD
:10D8F000022084F89C0261602046FFF7B3FB2046BB
:10D90000BDE87040FFF70BBC31462046BDE87040D3
:10D91000FFF7D2BB2046BDE87040FFF700BC000017
:10D92000E40000204988012903D1C0F8A412FFF7C0
:10D93000F6BB704710B5FFF71DFF002010BD10B5F6
:10D9400000240A7812F060020CD0202A05D0402A68
:10D9500003D0FFF7B1FB204610BDD0F8B422926887
:10D960009047F8E74A780A2A1BD2DFE802F011173D
:10D970001A141A08051A0E0BFFF7F9FBEBE7FFF76D
:10D9800032FFE8E7FFF768FFE5E7FFF7D3FBE2E7E1
:10D99000FFF7E2FCDFE7FFF7C5FFDCE7FFF769FB16
:10D9A000D9E7FFF789FBD6E72DE9F04104460A469F
:10D9B00000261179137813F0600011D0202808D0C8
:10D9C000402806D011462046FFF776FB3046BDE8DA
:10D9D000F081D4F8B4021146836820469847F5E7F1
:10D9E000C3F3411001280BD05078002860D00128E3
:10D9F00037D003280CD011462046FFF75DFBE5E742
:10DA0000D4F8B402114683682046BDE8F0411847B7
:10DA100094F89C02022806D0032814D01146204610
:10DA2000FFF74AFBD2E749B1802907D02046FFF72C
:10DA300098FE80212046FFF794FEC7E71146204656
:10DA4000FFF73AFBC2E7508838B931B1802904D0DA
:10DA5000D08810B92046FFF784FE2046FFF75FFB11
:10DA6000B4E794F89C02022806D0032814D011468B
:10DA70002046FFF721FBA9E749B1802907D02046BE
:10DA8000FFF76FFE80212046FFF76BFE9EE71146F1
:10DA90002046FFF711FB99E75088002896D14806E9
:10DAA00002D02046FFF7BDFC2046FFF738FB8DE78C
:10DAB00094F89C020027022806D0032824D011469F
:10DAC0002046FFF7F9FA81E731B1802904D01146E9
:10DAD0002046FFF7F1FA79E7080607D501F07F0045
:10DAE00000EB800004EB8001143107E001F07F00BF
:10DAF00000EB800004EB800101F5AA710F600222A7
:10DB00002046FFF7FFFA61E708060CD501F00F0089
:10DB100000EB800004EB8000806968B91146204664
:10DB2000FFF7CAFA52E701F00F0000EB800004EBA8
:10DB30008000D0F8580148B108060CD501F07F00EC
:10DB400000EB800004EB800514350CE01146204604
:10DB5000FFF7B2FA3AE701F07F0000EB800004EB38
:10DB6000800505F5AA7541B1802906D02046FFF74A
:10DB70005DFD20B10120286002E02F6000E02F60F1
:10DB8000022229462046FFF7BDFA1FE770B5054679
:10DB90000C46207810F0600209D0202A07D0402AD5
:10DBA00005D021462846FFF787FA002070BD95F87A
:10DBB0009C22012A08D0022A06D0032A04D021463A
:10DBC0002846FFF779FAF0E7207901280ED8D5F832
:10DBD000B4022146826828469047E1880029E4D1B2
:10DBE0000028E2D12846FFF79AFADEE721462846C8
:10DBF000FFF762FAD9E7704700487047880C0020A9
:10DC00002DE9F04700270D7830F8252048F68F13CE
:10DC10001A40CB78002B7DD0012B79D0022B02D07B
:10DC2000032B7AD0012748F28004224320F82520D4
:10DC30000A7830F8223048F68F752B40134323437F
:10DC400020F822300B7B48F6BF724BF68F7848F2F3
:10DC5000C0064CF2800CE3B30B7830F8239009EA4D
:10DC6000050948F2801A49EA0A0920F82390B0F819
:10DC70005030034491F8009003EBC903B1F80890C9
:10DC800029F00109A3F80094B0F85030034491F84A
:10DC9000009003EBC903B1F80A9029F00109A3F839
:10DCA00004944B78002B70D00B7830F823905FEA07
:10DCB000494907D530F8239009EA050949EA0C09D2
:10DCC00020F823900B7830F823905FEA496909D552
:10DCD00000E028E030F8239009EA050949EA06093E
:10DCE00020F823900B7830F823602E4046EA0C068B
:10DCF00020F82360CB78012B73D00B7830F82350B9
:10DD0000154085F02002224320F82320CCE001E0DA
:10DD100006E002E042F4007285E742F4C06282E766
:10DD200042F480627FE74B7883B3B0F8503003440D
:10DD300091F800C003EBCC03B1F806C02CF0010C45
:10DD4000A3F800C40B7830F823C05FEA4C6C07D509
:10DD500030F823C00CEA050C4CEA060C20F823C06E
:10DD6000CB78012B09D0097830F82130134083F0AB
:10DD70002002224320F821209EE0097830F821304B
:10DD80001340234320F8213096E04DE0FFE7B0F840
:10DD9000502002440B7802EBC302CB8823F001032E
:10DDA000A2F80434B0F8502002440B7802EBC3020E
:10DDB00002F206420B695BB13E2B13D85E08DB070B
:10DDC00000D0761C4FF6FF7303EA8623138012E01F
:10DDD000138823F4F8431380138843F4004313801B
:10DDE00009E05AE05E09DB0600D1761E4FF40043DD
:10DDF00043EA862313800A7830F822305B0406D584
:10DE000030F822302B4043EA0C0320F82230097806
:10DE100030F8212002EA080282F4805282F4005293
:10DE2000224320F8212047E00B7830F823905FEA66
:10DE3000494907D530F8239009EA050949EA0C0950
:10DE400020F823900B7830F823C05FEA4C6C07D59C
:10DE500030F823C00CEA050C4CEA060C20F823C06D
:10DE60000B7830F823C00CEA050C4CEA060C20F8BD
:10DE700023C00B7830F8235005EA080585F4805557
:10DE800085F40055254320F82350097830F82130D7
:10DE90001340234320F821300EE00B7830F8235054
:10DEA0001540254320F82350097830F8212002EA54
:10DEB0000802224320F821203846BDE8F087000000
:10DEC000F0B5ADF2B44D364F364C07F51775002658
:10DED0003988788881425FD0411C89B23844798082
:10DEE0000079B1F5167F00D37E802178082951D2C0
:10DEF000DFE801F004090D141821303B2328E7D195
:10DF000001202070E4E7688002202070E0E7032110
:10DF10002170A97800EB01206880D9E7A88004204F
:10DF20002070D5E7297900EB0120A8802E800520FC
:10DF300020706670CCE761780144617029884A1CC2
:10DF400029442A8088712888A9888842C0D306205D
:10DF50002070BDE76178884202D107202070B7E7C2
:10DF600011A0FEF7A4F82670B2E7242810D140F2E1
:10DF70004E2212496846FBF74DF9104940F25E22E5
:10DF8000103995A8FBF746F995A80FC8FEF7B8FA1F
:10DF900026709DE726709BE70DF2B44DF0BD0000A2
:10DFA0000703002000000020636865636B20737521
:10DFB0006D206572726F720D0A00000073050020FB
:10DFC0002DE9F04391F80C904C780A7848F6BF762A
:10DFD0004BF68F7748F2800548F2C00C4CF280086F
:10DFE00048F68F73B9F1000F31D07CB330F822407E
:10DFF000640406D530F822401C4044EA080420F8A6
:10E0000022400A7830F82240640606D530F82240D3
:10E010001C4044EA0C0420F822400A7830F82240E0
:10E020001C4044EA080420F822400A7830F82230E4
:10E0300033402B4320F82230097830F821203A4031
:10E040002A4320F821200020BDE8F08326E094B187
:10E0500030F82240640606D530F822401C4044EADD
:10E060000C0420F82240097830F8212032402A435D
:10E0700020F82120E7E730F82240640406D530F884
:10E0800022401C4044EA080420F82240097830F875
:10E0900021203A402A4320F82120D4E730F82240BA
:10E0A000640406D530F822401C4044EA080420F8F5
:10E0B00022400A7830F82240640606D530F8224023
:10E0C0001C4044EA0C0420F822400A7830F8224030
:10E0D0001C4044EA0C0420F822400A7830F8223030
:10E0E0003B402B4320F82230097830F82120324081
:10E0F0002A4320F82120A6E730F8581F41F40041B8
:10E1000001800020704700B5012120F8401F002148
:10E11000018081800182403800F06DF9002000BD4F
:10E120004BF6807230F8401F914301800020704709
:10E130000020704730B50A7B002A3BD14A7848F668
:10E140008F7548F28004DAB10A7830F822305B0625
:10E1500007D530F822302B4048F2C0052B4320F879
:10E160002230CA78012A25D0097830F8212048F6D3
:10E17000BF731A4082F02002224320F8212019E0C8
:10E180000A7830F822305B0407D530F822302B4073
:10E190004CF280052B4320F82230097830F82120FA
:10E1A0004BF68F731A4082F4805282F4005222435D
:10E1B00020F82120002030BD10B54A78097848F2B7
:10E1C0008003002A0AD030F8212048F6BF7422408C
:10E1D00082F010021A4320F8212009E030F82120B3
:10E1E0004BF68F74224082F480521A4320F821208B
:10E1F000002010BDF0B505460C46002294F801C081
:10E20000217B2669A06948F28007BCF1010F04D088
:10E21000B0425CD9801BA0615BE0B04202D9801B98
:10E22000A06101E00646A26169B1207835F82010AE
:10E23000490617D5B5F85010294401EBC000A0F8E5
:10E240000664628916E0B3B2E2882846616900F08C
:10E2500000F9B5F850002844217800EBC100A0F87F
:10E26000026426E0B5F85010294401EBC000A0F884
:10E2700002642289B3B22846616900F0EAF8607846
:10E2800048F68F7210B101280AD012E0207835F8D4
:10E290002010114048F2C002114325F8201008E078
:10E2A000207835F8201011404CF28002114325F8F7
:10E2B0002010207835F8201048F6BF72114081F008
:10E2C000100181F02001394325F8201091E0064625
:10E2D000A2614FF6FF724FF4004319B1BCF1000F79
:10E2E00024D048E0B5F850002844217800EBC10064
:10E2F00000F206404EB13E2E10D87108F30700D050
:10E30000491C02EA8121018066E0018821F4F8417C
:10E310000180018841F4004101805DE07109F2064D
:10E3200000D1491E43EA8121018055E0B5F8500033
:10E330002844217800EBC10000F2024056B13E2E85
:10E3400011D871085FEAC67C00D0491C02EA81211D
:10E35000018010E0018821F4F8410180018841F436
:10E360000041018007E071095FEAC66C00D1491ED7
:10E3700043EA81210180607810B1012824D02BE08C
:10E38000B5F850002844217800EBC10000F20640A7
:10E390004EB13E2E10D87108F30700D0491C02EA96
:10E3A0008121018018E0018821F4F8410180018871
:10E3B00041F4004101800FE07109F20600D1491ECD
:10E3C00043EA8121018007E0B5F85010481921780F
:10E3D00000EBC100A0F80664207835F820104BF659
:10E3E0008F72114081F4805181F40051394325F836
:10E3F00020100020F0BD4BF6807230F8401F114312
:10E4000001800020704700000148FCF7D8BD0000E3
:10E41000A80E0020B0F84400704710B55C08104406
:10E4200000F58060002C08D030F8022B0A70120A28
:10E430004A70891C641E002CF6D1DA0701D00088CE
:10E44000087010BD002902D18021A0F84C100020D6
:10E45000704710B55B1C5B08104400F58060002B12
:10E4600009D00A784C78891C42EA042220F8022B51
:10E470005B1E002BF5D110BD0FB470B50D9D0024AF
:10E4800007A00499FDF713FE2A4604A90748FBF7E5
:10E4900065FD00B10124204670BC5DF814FB00004E
:10E4A0004944463A253038580D0A00000C1B00201C
:10E4B0000FB410B50B9A002402A90448FBF74EFDD7
:10E4C00000B10124204610BC5DF814FB701B002035
:10E4D000FEE70000F0B500220A4C4FF41677002644
:10E4E0000CE0238810F802C05D1C2344258083F8CB
:10E4F00004C02388BB4200D32680521C8A42F0D33A
:10E50000F0BD00000703002070B50A480024048015
:10E5100044804FF416752946001DFAF794FE06480C
:10E520004480048084802946BDE87040801DFAF74D
:10E530008ABE00000703002063050020F0B400231A
:10E540000024104E23253570050A7570B070100A2E
:10E55000F0700520327107E0CD5C35542C44E4B2F4
:10E56000401C80B25B1C9BB29342F5D3411C8AB223
:10E5700034542423501C81B2B354F0BC014800F041
:10E580002FB80000C1070020F0B400249D1C134EDA
:10E5900023273770070A7770B070280AF07035713A
:10E5A000080A7071B1710844C1B2072007E0155D17
:10E5B00035542944C9B2401C80B2641CA4B29C42A8
:10E5C000F5D3421C92B2315424201346521C91B20E
:10E5D000F054F0BC014800F003B80000C10700206F
:10E5E0002DE9F84381460D460024002000900026C6
:10E5F0006846FBF70FFCDFF8B0804FF400673F2D53
:10E6000014D842E003216846FBF718FA30B1002223
:10E6100039464046FCF7DAFA012605E03F21484634
:10E62000FBF7F6F90028EDD13F34A4B2AC42F5D3A4
:10E630003F20B5FBF0F100FB115129B3B5FBF0F120
:10E6400000FB1154281B00EB09050BE00321684671
:10E65000FBF7F4F930B1002239464046FCF7B6FA30
:10E66000012618E028462146FBF7D2F90028EDD113
:10E6700011E003216846FBF7E1F930B10022394689
:10E680004046FCF7A3FA012605E029464846FBF779
:10E69000BFF90028EDD126B9012239464046FCF7E2
:10E6A00095FA3046BDE8F8830004004837B51446B3
:10E6B0000846064B6A46214600F0ECF804466946D7
:10E6C000002000F06AFC20463EBD00009BEF0008E1
:10E6D0000907090E002804DB00F1E02080F800148F
:10E6E000704700F00F0000F1E02080F8141D704723
:10E6F00002E008C8121F08C1002AFAD1704770470B
:10E70000002001E001C1121F002AFBD17047000068
:10E710002DE9FF5F82B00021DDE90430020DDDF854
:10E7200040B0034318D044F61050A2F2FF324243E7
:10E730001514119801281FD0A5EB0B00401C5FEAAF
:10E74000000A4FF000064E4FDFF83891B0465046B1
:10E7500015D5CAF1000413E0119801244AA3012839
:10E7600001D16FEA0B010298119AC0E90031C0E9AA
:10E77000024206B0BDE8F09FCBF10000DFE704469F
:10E780000021404A491842EB0450CDE9001012E044
:10E79000E00707D032463B4640464946FAF74CFE72
:10E7A0008046894632463B4610461946FAF744FEF3
:10E7B00006460F466410002CEAD1DDE90401DDE9CC
:10E7C0000023BAF1000F06DAFAF736FE42464B464E
:10E7D000FAF732FE05E0FAF7A1FE42464B46FAF799
:10E7E0009DFE04460E460022284BFAF71FFF03D871
:10E7F0004FF0FF30014607E00022254B204631460E
:10E80000FAF773FDFAF7F9FE102409E0002C0ADB91
:10E810000A220023FAF738FD039B30321A55641E92
:10E8200050EA0102F2D1641C039AC4F111031444AA
:10E83000119A012A03D0012208430DD10AE00843AE
:10E8400004D000204FF0110B119072E7A3EB0B05E1
:10E850006D1E0DE05B4504DD4FF0000205F1010582
:10E8600004E003DA4FF00002A5F10105002AECD024
:10E8700002981199C0E90231C0E9004579E700002A
:10E88000000014400000F03F300000000000F043A2
:10E890000000E03F2DE9FF4F95B09A4688460646B6
:10E8A0000025EEE1252877D100242746F94A0121E9
:10E8B000039400E0044316F8013F203B01FA03F003
:10E8C0001042F7D130782A2811D06FF02F0330781A
:10E8D000A0F13002092A16D8039A44F0020402EB90
:10E8E000820203EB42021044761C0390EFE758F8D3
:10E8F000042B0392002A03DA504244F4005403909C
:10E9000044F00204761C30782E2816D116F8010F38
:10E9100044F004042A280DD06FF02F023078A0F1C3
:10E920003003092B09D807EB870302EB4303C71811
:10E93000761CF3E758F8047B761C30786C280FD0EF
:10E9400006DC4C2817D068280DD06A2814D104E0C2
:10E95000742810D07A280FD10DE044F400140AE096
:10E9600044F4801401E044F440147278824202D1ED
:10E9700004F58014761C761C307866280BD013DCE6
:10E98000582877D009DC002875D04528F6D04628CD
:10E99000F4D047281AD193E118E0632835D06428D1
:10E9A00079D0652812D18BE1702873D008DC6728F4
:10E9B000F1D069286FD06E280DD06F2806D1ACE059
:10E9C00073282CD0752874D0782853D052461799C4
:10E9D00090476D1C54E1C4F30250022809D003286B
:10E9E0000DD0D8F8001004280DD00D6008F10408EF
:10E9F00046E1D8F80010EA17C1E90052F6E7D8F866
:10EA000000100D80F2E70D70F0E718F8041B8DF888
:10EA1000001000208DF80100EB46012003E058F8BB
:10EA200004BB4FF0FF3061074FF0000102D40DE04E
:10EA300009F101018946B9420FDA8145F8DB1BF87B
:10EA400009100029F4D108E009F101018946814249
:10EA5000FADB1BF809100029F6D103985346A0EB06
:10EA6000090721463846179A00F080FA284400EB3F
:10EA7000090507E044E008E10DE01BF8010B5246F0
:10EA800017999047B9F10109F7D253462146384604
:10EA9000179AF2E039E00A21C4F302524FF0000B5A
:10EAA0000091022A06D058F8040BC117032A09D096
:10EAB0000AE023E008F1070020F00702F2E8020173
:10EAC000904605E000B2C117042A01D140B2C11737
:10EAD000002906DA0A460021404261EB02012D229C
